{
  "_format": "hh-sol-artifact-1",
  "contractName": "SoulToken",
  "sourceName": "contracts/SoulToken.sol",
  "abi": [
    {
      "inputs": [
        {
          "internalType": "address",
          "name": "admin",
          "type": "address"
        }
      ],
      "stateMutability": "nonpayable",
      "type": "constructor"
    },
    {
      "inputs": [],
      "name": "AccessControlBadConfirmation",
      "type": "error"
    },
    {
      "inputs": [
        {
          "internalType": "address",
          "name": "account",
          "type": "address"
        },
        {
          "internalType": "bytes32",
          "name": "neededRole",
          "type": "bytes32"
        }
      ],
      "name": "AccessControlUnauthorizedAccount",
      "type": "error"
    },
    {
      "inputs": [],
      "name": "ApprovalsDisabled",
      "type": "error"
    },
    {
      "inputs": [],
      "name": "ECDSAInvalidSignature",
      "type": "error"
    },
    {
      "inputs": [
        {
          "internalType": "uint256",
          "name": "length",
          "type": "uint256"
        }
      ],
      "name": "ECDSAInvalidSignatureLength",
      "type": "error"
    },
    {
      "inputs": [
        {
          "internalType": "bytes32",
          "name": "s",
          "type": "bytes32"
        }
      ],
      "name": "ECDSAInvalidSignatureS",
      "type": "error"
    },
    {
      "inputs": [
        {
          "internalType": "address",
          "name": "sender",
          "type": "address"
        },
        {
          "internalType": "uint256",
          "name": "tokenId",
          "type": "uint256"
        },
        {
          "internalType": "address",
          "name": "owner",
          "type": "address"
        }
      ],
      "name": "ERC721IncorrectOwner",
      "type": "error"
    },
    {
      "inputs": [
        {
          "internalType": "address",
          "name": "operator",
          "type": "address"
        },
        {
          "internalType": "uint256",
          "name": "tokenId",
          "type": "uint256"
        }
      ],
      "name": "ERC721InsufficientApproval",
      "type": "error"
    },
    {
      "inputs": [
        {
          "internalType": "address",
          "name": "approver",
          "type": "address"
        }
      ],
      "name": "ERC721InvalidApprover",
      "type": "error"
    },
    {
      "inputs": [
        {
          "internalType": "address",
          "name": "operator",
          "type": "address"
        }
      ],
      "name": "ERC721InvalidOperator",
      "type": "error"
    },
    {
      "inputs": [
        {
          "internalType": "address",
          "name": "owner",
          "type": "address"
        }
      ],
      "name": "ERC721InvalidOwner",
      "type": "error"
    },
    {
      "inputs": [
        {
          "internalType": "address",
          "name": "receiver",
          "type": "address"
        }
      ],
      "name": "ERC721InvalidReceiver",
      "type": "error"
    },
    {
      "inputs": [
        {
          "internalType": "address",
          "name": "sender",
          "type": "address"
        }
      ],
      "name": "ERC721InvalidSender",
      "type": "error"
    },
    {
      "inputs": [
        {
          "internalType": "uint256",
          "name": "tokenId",
          "type": "uint256"
        }
      ],
      "name": "ERC721NonexistentToken",
      "type": "error"
    },
    {
      "inputs": [],
      "name": "InvalidSignature",
      "type": "error"
    },
    {
      "inputs": [],
      "name": "MaxReputationPerTxExceeded",
      "type": "error"
    },
    {
      "inputs": [],
      "name": "NonTransferable",
      "type": "error"
    },
    {
      "inputs": [],
      "name": "NotTokenOwner",
      "type": "error"
    },
    {
      "inputs": [],
      "name": "SignatureAlreadyUsed",
      "type": "error"
    },
    {
      "inputs": [],
      "name": "SoulAlreadyExists",
      "type": "error"
    },
    {
      "inputs": [],
      "name": "SoulDoesNotExist",
      "type": "error"
    },
    {
      "anonymous": false,
      "inputs": [
        {
          "indexed": true,
          "internalType": "address",
          "name": "owner",
          "type": "address"
        },
        {
          "indexed": true,
          "internalType": "address",
          "name": "approved",
          "type": "address"
        },
        {
          "indexed": true,
          "internalType": "uint256",
          "name": "tokenId",
          "type": "uint256"
        }
      ],
      "name": "Approval",
      "type": "event"
    },
    {
      "anonymous": false,
      "inputs": [
        {
          "indexed": true,
          "internalType": "address",
          "name": "owner",
          "type": "address"
        },
        {
          "indexed": true,
          "internalType": "address",
          "name": "operator",
          "type": "address"
        },
        {
          "indexed": false,
          "internalType": "bool",
          "name": "approved",
          "type": "bool"
        }
      ],
      "name": "ApprovalForAll",
      "type": "event"
    },
    {
      "anonymous": false,
      "inputs": [
        {
          "indexed": true,
          "internalType": "address",
          "name": "user",
          "type": "address"
        },
        {
          "indexed": false,
          "internalType": "bool",
          "name": "verified",
          "type": "bool"
        }
      ],
      "name": "HumanVerified",
      "type": "event"
    },
    {
      "anonymous": false,
      "inputs": [
        {
          "indexed": true,
          "internalType": "address",
          "name": "user",
          "type": "address"
        },
        {
          "indexed": false,
          "internalType": "uint256",
          "name": "oldReputation",
          "type": "uint256"
        },
        {
          "indexed": false,
          "internalType": "uint256",
          "name": "newReputation",
          "type": "uint256"
        },
        {
          "indexed": false,
          "internalType": "enum SoulToken.ReputationEvent",
          "name": "eventType",
          "type": "uint8"
        },
        {
          "indexed": true,
          "internalType": "address",
          "name": "platform",
          "type": "address"
        }
      ],
      "name": "ReputationChanged",
      "type": "event"
    },
    {
      "anonymous": false,
      "inputs": [
        {
          "indexed": true,
          "internalType": "bytes32",
          "name": "role",
          "type": "bytes32"
        },
        {
          "indexed": true,
          "internalType": "bytes32",
          "name": "previousAdminRole",
          "type": "bytes32"
        },
        {
          "indexed": true,
          "internalType": "bytes32",
          "name": "newAdminRole",
          "type": "bytes32"
        }
      ],
      "name": "RoleAdminChanged",
      "type": "event"
    },
    {
      "anonymous": false,
      "inputs": [
        {
          "indexed": true,
          "internalType": "bytes32",
          "name": "role",
          "type": "bytes32"
        },
        {
          "indexed": true,
          "internalType": "address",
          "name": "account",
          "type": "address"
        },
        {
          "indexed": true,
          "internalType": "address",
          "name": "sender",
          "type": "address"
        }
      ],
      "name": "RoleGranted",
      "type": "event"
    },
    {
      "anonymous": false,
      "inputs": [
        {
          "indexed": true,
          "internalType": "bytes32",
          "name": "role",
          "type": "bytes32"
        },
        {
          "indexed": true,
          "internalType": "address",
          "name": "account",
          "type": "address"
        },
        {
          "indexed": true,
          "internalType": "address",
          "name": "sender",
          "type": "address"
        }
      ],
      "name": "RoleRevoked",
      "type": "event"
    },
    {
      "anonymous": false,
      "inputs": [
        {
          "indexed": true,
          "internalType": "address",
          "name": "user",
          "type": "address"
        },
        {
          "indexed": true,
          "internalType": "uint256",
          "name": "tokenId",
          "type": "uint256"
        }
      ],
      "name": "SoulBurned",
      "type": "event"
    },
    {
      "anonymous": false,
      "inputs": [
        {
          "indexed": true,
          "internalType": "address",
          "name": "user",
          "type": "address"
        },
        {
          "indexed": true,
          "internalType": "uint256",
          "name": "tokenId",
          "type": "uint256"
        }
      ],
      "name": "SoulCreated",
      "type": "event"
    },
    {
      "anonymous": false,
      "inputs": [
        {
          "indexed": true,
          "internalType": "address",
          "name": "from",
          "type": "address"
        },
        {
          "indexed": true,
          "internalType": "address",
          "name": "to",
          "type": "address"
        },
        {
          "indexed": true,
          "internalType": "uint256",
          "name": "tokenId",
          "type": "uint256"
        }
      ],
      "name": "Transfer",
      "type": "event"
    },
    {
      "inputs": [],
      "name": "ADMIN_ROLE",
      "outputs": [
        {
          "internalType": "bytes32",
          "name": "",
          "type": "bytes32"
        }
      ],
      "stateMutability": "view",
      "type": "function"
    },
    {
      "inputs": [],
      "name": "DEFAULT_ADMIN_ROLE",
      "outputs": [
        {
          "internalType": "bytes32",
          "name": "",
          "type": "bytes32"
        }
      ],
      "stateMutability": "view",
      "type": "function"
    },
    {
      "inputs": [],
      "name": "MAX_REPUTATION_PER_TX",
      "outputs": [
        {
          "internalType": "uint256",
          "name": "",
          "type": "uint256"
        }
      ],
      "stateMutability": "view",
      "type": "function"
    },
    {
      "inputs": [],
      "name": "REPUTATION_ROLE",
      "outputs": [
        {
          "internalType": "bytes32",
          "name": "",
          "type": "bytes32"
        }
      ],
      "stateMutability": "view",
      "type": "function"
    },
    {
      "inputs": [],
      "name": "VERIFIER_ROLE",
      "outputs": [
        {
          "internalType": "bytes32",
          "name": "",
          "type": "bytes32"
        }
      ],
      "stateMutability": "view",
      "type": "function"
    },
    {
      "inputs": [
        {
          "internalType": "address",
          "name": "",
          "type": "address"
        },
        {
          "internalType": "uint256",
          "name": "",
          "type": "uint256"
        }
      ],
      "name": "approve",
      "outputs": [],
      "stateMutability": "pure",
      "type": "function"
    },
    {
      "inputs": [
        {
          "internalType": "address",
          "name": "owner",
          "type": "address"
        }
      ],
      "name": "balanceOf",
      "outputs": [
        {
          "internalType": "uint256",
          "name": "",
          "type": "uint256"
        }
      ],
      "stateMutability": "view",
      "type": "function"
    },
    {
      "inputs": [],
      "name": "burnSoul",
      "outputs": [],
      "stateMutability": "nonpayable",
      "type": "function"
    },
    {
      "inputs": [
        {
          "internalType": "address",
          "name": "user",
          "type": "address"
        },
        {
          "internalType": "uint256",
          "name": "points",
          "type": "uint256"
        },
        {
          "internalType": "enum SoulToken.ReputationEvent",
          "name": "eventType",
          "type": "uint8"
        }
      ],
      "name": "decreaseReputation",
      "outputs": [],
      "stateMutability": "nonpayable",
      "type": "function"
    },
    {
      "inputs": [
        {
          "internalType": "uint256",
          "name": "tokenId",
          "type": "uint256"
        }
      ],
      "name": "getApproved",
      "outputs": [
        {
          "internalType": "address",
          "name": "",
          "type": "address"
        }
      ],
      "stateMutability": "view",
      "type": "function"
    },
    {
      "inputs": [
        {
          "internalType": "address",
          "name": "user",
          "type": "address"
        }
      ],
      "name": "getProfile",
      "outputs": [
        {
          "internalType": "bool",
          "name": "exists",
          "type": "bool"
        },
        {
          "internalType": "bool",
          "name": "isHuman",
          "type": "bool"
        },
        {
          "internalType": "uint256",
          "name": "reputation",
          "type": "uint256"
        },
        {
          "internalType": "uint256",
          "name": "createdAt",
          "type": "uint256"
        },
        {
          "internalType": "uint256",
          "name": "updatedAt",
          "type": "uint256"
        },
        {
          "internalType": "uint256",
          "name": "tokenId",
          "type": "uint256"
        }
      ],
      "stateMutability": "view",
      "type": "function"
    },
    {
      "inputs": [
        {
          "internalType": "bytes32",
          "name": "role",
          "type": "bytes32"
        }
      ],
      "name": "getRoleAdmin",
      "outputs": [
        {
          "internalType": "bytes32",
          "name": "",
          "type": "bytes32"
        }
      ],
      "stateMutability": "view",
      "type": "function"
    },
    {
      "inputs": [
        {
          "internalType": "bytes32",
          "name": "role",
          "type": "bytes32"
        },
        {
          "internalType": "address",
          "name": "account",
          "type": "address"
        }
      ],
      "name": "grantRole",
      "outputs": [],
      "stateMutability": "nonpayable",
      "type": "function"
    },
    {
      "inputs": [
        {
          "internalType": "bytes32",
          "name": "role",
          "type": "bytes32"
        },
        {
          "internalType": "address",
          "name": "account",
          "type": "address"
        }
      ],
      "name": "hasRole",
      "outputs": [
        {
          "internalType": "bool",
          "name": "",
          "type": "bool"
        }
      ],
      "stateMutability": "view",
      "type": "function"
    },
    {
      "inputs": [
        {
          "internalType": "address",
          "name": "user",
          "type": "address"
        }
      ],
      "name": "hasSoul",
      "outputs": [
        {
          "internalType": "bool",
          "name": "",
          "type": "bool"
        }
      ],
      "stateMutability": "view",
      "type": "function"
    },
    {
      "inputs": [
        {
          "internalType": "address",
          "name": "user",
          "type": "address"
        },
        {
          "internalType": "uint256",
          "name": "points",
          "type": "uint256"
        },
        {
          "internalType": "enum SoulToken.ReputationEvent",
          "name": "eventType",
          "type": "uint8"
        }
      ],
      "name": "increaseReputation",
      "outputs": [],
      "stateMutability": "nonpayable",
      "type": "function"
    },
    {
      "inputs": [
        {
          "internalType": "address",
          "name": "owner",
          "type": "address"
        },
        {
          "internalType": "address",
          "name": "operator",
          "type": "address"
        }
      ],
      "name": "isApprovedForAll",
      "outputs": [
        {
          "internalType": "bool",
          "name": "",
          "type": "bool"
        }
      ],
      "stateMutability": "view",
      "type": "function"
    },
    {
      "inputs": [
        {
          "internalType": "bytes32",
          "name": "nonce",
          "type": "bytes32"
        }
      ],
      "name": "isSignatureUsed",
      "outputs": [
        {
          "internalType": "bool",
          "name": "",
          "type": "bool"
        }
      ],
      "stateMutability": "view",
      "type": "function"
    },
    {
      "inputs": [],
      "name": "mintSoul",
      "outputs": [],
      "stateMutability": "nonpayable",
      "type": "function"
    },
    {
      "inputs": [],
      "name": "name",
      "outputs": [
        {
          "internalType": "string",
          "name": "",
          "type": "string"
        }
      ],
      "stateMutability": "view",
      "type": "function"
    },
    {
      "inputs": [
        {
          "internalType": "uint256",
          "name": "tokenId",
          "type": "uint256"
        }
      ],
      "name": "ownerOf",
      "outputs": [
        {
          "internalType": "address",
          "name": "",
          "type": "address"
        }
      ],
      "stateMutability": "view",
      "type": "function"
    },
    {
      "inputs": [
        {
          "internalType": "bytes32",
          "name": "role",
          "type": "bytes32"
        },
        {
          "internalType": "address",
          "name": "callerConfirmation",
          "type": "address"
        }
      ],
      "name": "renounceRole",
      "outputs": [],
      "stateMutability": "nonpayable",
      "type": "function"
    },
    {
      "inputs": [
        {
          "internalType": "address",
          "name": "user",
          "type": "address"
        }
      ],
      "name": "revokeHumanVerification",
      "outputs": [],
      "stateMutability": "nonpayable",
      "type": "function"
    },
    {
      "inputs": [
        {
          "internalType": "bytes32",
          "name": "role",
          "type": "bytes32"
        },
        {
          "internalType": "address",
          "name": "account",
          "type": "address"
        }
      ],
      "name": "revokeRole",
      "outputs": [],
      "stateMutability": "nonpayable",
      "type": "function"
    },
    {
      "inputs": [
        {
          "internalType": "address",
          "name": "from",
          "type": "address"
        },
        {
          "internalType": "address",
          "name": "to",
          "type": "address"
        },
        {
          "internalType": "uint256",
          "name": "tokenId",
          "type": "uint256"
        }
      ],
      "name": "safeTransferFrom",
      "outputs": [],
      "stateMutability": "nonpayable",
      "type": "function"
    },
    {
      "inputs": [
        {
          "internalType": "address",
          "name": "from",
          "type": "address"
        },
        {
          "internalType": "address",
          "name": "to",
          "type": "address"
        },
        {
          "internalType": "uint256",
          "name": "tokenId",
          "type": "uint256"
        },
        {
          "internalType": "bytes",
          "name": "data",
          "type": "bytes"
        }
      ],
      "name": "safeTransferFrom",
      "outputs": [],
      "stateMutability": "nonpayable",
      "type": "function"
    },
    {
      "inputs": [
        {
          "internalType": "address",
          "name": "",
          "type": "address"
        },
        {
          "internalType": "bool",
          "name": "",
          "type": "bool"
        }
      ],
      "name": "setApprovalForAll",
      "outputs": [],
      "stateMutability": "pure",
      "type": "function"
    },
    {
      "inputs": [
        {
          "internalType": "address",
          "name": "user",
          "type": "address"
        }
      ],
      "name": "soulOf",
      "outputs": [
        {
          "internalType": "uint256",
          "name": "",
          "type": "uint256"
        }
      ],
      "stateMutability": "view",
      "type": "function"
    },
    {
      "inputs": [
        {
          "internalType": "bytes4",
          "name": "interfaceId",
          "type": "bytes4"
        }
      ],
      "name": "supportsInterface",
      "outputs": [
        {
          "internalType": "bool",
          "name": "",
          "type": "bool"
        }
      ],
      "stateMutability": "view",
      "type": "function"
    },
    {
      "inputs": [],
      "name": "symbol",
      "outputs": [
        {
          "internalType": "string",
          "name": "",
          "type": "string"
        }
      ],
      "stateMutability": "view",
      "type": "function"
    },
    {
      "inputs": [
        {
          "internalType": "uint256",
          "name": "tokenId",
          "type": "uint256"
        }
      ],
      "name": "tokenURI",
      "outputs": [
        {
          "internalType": "string",
          "name": "",
          "type": "string"
        }
      ],
      "stateMutability": "view",
      "type": "function"
    },
    {
      "inputs": [
        {
          "internalType": "address",
          "name": "from",
          "type": "address"
        },
        {
          "internalType": "address",
          "name": "to",
          "type": "address"
        },
        {
          "internalType": "uint256",
          "name": "tokenId",
          "type": "uint256"
        }
      ],
      "name": "transferFrom",
      "outputs": [],
      "stateMutability": "nonpayable",
      "type": "function"
    },
    {
      "inputs": [
        {
          "internalType": "address",
          "name": "user",
          "type": "address"
        },
        {
          "internalType": "bytes32",
          "name": "nonce",
          "type": "bytes32"
        },
        {
          "internalType": "bytes",
          "name": "signature",
          "type": "bytes"
        }
      ],
      "name": "verifyHumanWithSignature",
      "outputs": [],
      "stateMutability": "nonpayable",
      "type": "function"
    }
  ],
  "bytecode": "0x60806040523480156200001157600080fd5b506040516200445838038062004458833981810160405281019062000037919062000302565b6040518060400160405280601081526020017f536f756c204c6179657220546f6b656e000000000000000000000000000000008152506040518060400160405280600481526020017f534f554c000000000000000000000000000000000000000000000000000000008152508160009081620000b49190620005ae565b508060019081620000c69190620005ae565b505050620000de6000801b826200012160201b60201c565b50620001117fa49807205ce4d355092ef5a8a18f56e8913cf4a201fbe287825b095693c21775826200012160201b60201c565b5060016007819055505062000695565b60006200013583836200022560201b60201c565b6200021a5760016006600085815260200190815260200160002060000160008473ffffffffffffffffffffffffffffffffffffffff1673ffffffffffffffffffffffffffffffffffffffff16815260200190815260200160002060006101000a81548160ff021916908315150217905550620001b66200029060201b60201c565b73ffffffffffffffffffffffffffffffffffffffff168273ffffffffffffffffffffffffffffffffffffffff16847f2f8788117e7eff1d82e926ec794901d17c78024a50270940304540a733656f0d60405160405180910390a4600190506200021f565b600090505b92915050565b60006006600084815260200190815260200160002060000160008373ffffffffffffffffffffffffffffffffffffffff1673ffffffffffffffffffffffffffffffffffffffff16815260200190815260200160002060009054906101000a900460ff16905092915050565b600033905090565b600080fd5b600073ffffffffffffffffffffffffffffffffffffffff82169050919050565b6000620002ca826200029d565b9050919050565b620002dc81620002bd565b8114620002e857600080fd5b50565b600081519050620002fc81620002d1565b92915050565b6000602082840312156200031b576200031a62000298565b5b60006200032b84828501620002eb565b91505092915050565b600081519050919050565b7f4e487b7100000000000000000000000000000000000000000000000000000000600052604160045260246000fd5b7f4e487b7100000000000000000000000000000000000000000000000000000000600052602260045260246000fd5b60006002820490506001821680620003b657607f821691505b602082108103620003cc57620003cb6200036e565b5b50919050565b60008190508160005260206000209050919050565b60006020601f8301049050919050565b600082821b905092915050565b600060088302620004367fffffffffffffffffffffffffffffffffffffffffffffffffffffffffffffffff82620003f7565b620004428683620003f7565b95508019841693508086168417925050509392505050565b6000819050919050565b6000819050919050565b60006200048f6200048962000483846200045a565b62000464565b6200045a565b9050919050565b6000819050919050565b620004ab836200046e565b620004c3620004ba8262000496565b84845462000404565b825550505050565b600090565b620004da620004cb565b620004e7818484620004a0565b505050565b5b818110156200050f5762000503600082620004d0565b600181019050620004ed565b5050565b601f8211156200055e576200052881620003d2565b6200053384620003e7565b8101602085101562000543578190505b6200055b6200055285620003e7565b830182620004ec565b50505b505050565b600082821c905092915050565b6000620005836000198460080262000563565b1980831691505092915050565b60006200059e838362000570565b9150826002028217905092915050565b620005b98262000334565b67ffffffffffffffff811115620005d557620005d46200033f565b5b620005e182546200039d565b620005ee82828562000513565b600060209050601f83116001811462000626576000841562000611578287015190505b6200061d858262000590565b8655506200068d565b601f1984166200063686620003d2565b60005b82811015620006605784890151825560018201915060208501945060208101905062000639565b868310156200068057848901516200067c601f89168262000570565b8355505b6001600288020188555050505b505050505050565b613db380620006a56000396000f3fe608060405234801561001057600080fd5b50600436106101fb5760003560e01c806391d148541161011a578063b88d4fde116100ad578063e39e867d1161007c578063e39e867d146105fd578063e7705db614610607578063e955406214610625578063e985e9c51461062f578063ecfa58ca1461065f576101fb565b8063b88d4fde14610565578063bdd7520214610581578063c87b56dd146105b1578063d547741f146105e1576101fb565b8063a22cb465116100e9578063a22cb465146104f3578063a9c89e2b1461050f578063b1b0349c1461052d578063b4daf3bf14610549576101fb565b806391d148541461046957806395d89b411461049957806398ce5c2a146104b7578063a217fddf146104d5576101fb565b80632f2ff15d116101925780636352211e116101615780636352211e146103cf57806370a08231146103ff57806375b238fc1461042f578063853a2de21461044d576101fb565b80632f2ff15d1461034b57806336568abe1461036757806342842e0e146103835780634d80efae1461039f576101fb565b80630f53a470116101ce5780630f53a4701461029a57806323b872dd146102cf578063248a9ca3146102eb578063282de01f1461031b576101fb565b806301ffc9a71461020057806306fdde0314610230578063081812fc1461024e578063095ea7b31461027e575b600080fd5b61021a600480360381019061021591906130a5565b61067b565b60405161022791906130ed565b60405180910390f35b61023861068d565b6040516102459190613198565b60405180910390f35b610268600480360381019061026391906131f0565b61071f565b604051610275919061325e565b60405180910390f35b610298600480360381019061029391906132a5565b61073b565b005b6102b460048036038101906102af91906132e5565b61076d565b6040516102c696959493929190613321565b60405180910390f35b6102e960048036038101906102e49190613382565b610887565b005b6103056004803603810190610300919061340b565b610989565b6040516103129190613447565b60405180910390f35b610335600480360381019061033091906132e5565b6109a9565b6040516103429190613462565b60405180910390f35b6103656004803603810190610360919061347d565b610a78565b005b610381600480360381019061037c919061347d565b610a9a565b005b61039d60048036038101906103989190613382565b610b15565b005b6103b960048036038101906103b4919061340b565b610b35565b6040516103c691906130ed565b60405180910390f35b6103e960048036038101906103e491906131f0565b610b5f565b6040516103f6919061325e565b60405180910390f35b610419600480360381019061041491906132e5565b610b71565b6040516104269190613462565b60405180910390f35b610437610c2b565b6040516104449190613447565b60405180910390f35b61046760048036038101906104629190613522565b610c4f565b005b610483600480360381019061047e919061347d565b610f41565b60405161049091906130ed565b60405180910390f35b6104a1610fac565b6040516104ae9190613198565b60405180910390f35b6104bf61103e565b6040516104cc9190613462565b60405180910390f35b6104dd611043565b6040516104ea9190613447565b60405180910390f35b61050d600480360381019061050891906135c2565b61104a565b005b61051761107c565b6040516105249190613447565b60405180910390f35b610547600480360381019061054291906132e5565b6110a0565b005b610563600480360381019061055e9190613627565b611245565b005b61057f600480360381019061057a91906137aa565b611486565b005b61059b600480360381019061059691906132e5565b6114a3565b6040516105a891906130ed565b60405180910390f35b6105cb60048036038101906105c691906131f0565b6114fc565b6040516105d89190613198565b60405180910390f35b6105fb60048036038101906105f6919061347d565b611565565b005b610605611587565b005b61060f61178c565b60405161061c9190613447565b60405180910390f35b61062d6117b0565b005b6106496004803603810190610644919061382d565b61198f565b60405161065691906130ed565b60405180910390f35b61067960048036038101906106749190613627565b611a23565b005b600061068682611c39565b9050919050565b60606000805461069c9061389c565b80601f01602080910402602001604051908101604052809291908181526020018280546106c89061389c565b80156107155780601f106106ea57610100808354040283529160200191610715565b820191906000526020600020905b8154815290600101906020018083116106f857829003601f168201915b5050505050905090565b600061072a82611cb3565b5061073482611d3b565b9050919050565b6040517f8734687b00000000000000000000000000000000000000000000000000000000815260040160405180910390fd5b6000806000806000806000600960008973ffffffffffffffffffffffffffffffffffffffff1673ffffffffffffffffffffffffffffffffffffffff1681526020019081526020016000206040518060a00160405290816000820160009054906101000a900460ff161515151581526020016000820160019054906101000a900460ff161515151581526020016001820154815260200160028201548152602001600382015481525050905080600001518160200151826040015183606001518460800151600860008e73ffffffffffffffffffffffffffffffffffffffff1673ffffffffffffffffffffffffffffffffffffffff168152602001908152602001600020549650965096509650965096505091939550919395565b600073ffffffffffffffffffffffffffffffffffffffff168273ffffffffffffffffffffffffffffffffffffffff16036108f95760006040517f64a0ae920000000000000000000000000000000000000000000000000000000081526004016108f0919061325e565b60405180910390fd5b600061090d8383610908611d78565b611d80565b90508373ffffffffffffffffffffffffffffffffffffffff168173ffffffffffffffffffffffffffffffffffffffff1614610983578382826040517f64283d7b00000000000000000000000000000000000000000000000000000000815260040161097a939291906138cd565b60405180910390fd5b50505050565b600060066000838152602001908152602001600020600101549050919050565b6000600960008373ffffffffffffffffffffffffffffffffffffffff1673ffffffffffffffffffffffffffffffffffffffff16815260200190815260200160002060000160009054906101000a900460ff16610a31576040517f81896ea700000000000000000000000000000000000000000000000000000000815260040160405180910390fd5b600860008373ffffffffffffffffffffffffffffffffffffffff1673ffffffffffffffffffffffffffffffffffffffff168152602001908152602001600020549050919050565b610a8182610989565b610a8a81611e44565b610a948383611e58565b50505050565b610aa2611d78565b73ffffffffffffffffffffffffffffffffffffffff168173ffffffffffffffffffffffffffffffffffffffff1614610b06576040517f6697b23200000000000000000000000000000000000000000000000000000000815260040160405180910390fd5b610b108282611f4a565b505050565b610b3083838360405180602001604052806000815250611486565b505050565b6000600a600083815260200190815260200160002060009054906101000a900460ff169050919050565b6000610b6a82611cb3565b9050919050565b60008073ffffffffffffffffffffffffffffffffffffffff168273ffffffffffffffffffffffffffffffffffffffff1603610be45760006040517f89c62b64000000000000000000000000000000000000000000000000000000008152600401610bdb919061325e565b60405180910390fd5b600360008373ffffffffffffffffffffffffffffffffffffffff1673ffffffffffffffffffffffffffffffffffffffff168152602001908152602001600020549050919050565b7fa49807205ce4d355092ef5a8a18f56e8913cf4a201fbe287825b095693c2177581565b600960008573ffffffffffffffffffffffffffffffffffffffff1673ffffffffffffffffffffffffffffffffffffffff16815260200190815260200160002060000160009054906101000a900460ff16610cd5576040517f81896ea700000000000000000000000000000000000000000000000000000000815260040160405180910390fd5b600a600084815260200190815260200160002060009054906101000a900460ff1615610d2d576040517f900bb2c900000000000000000000000000000000000000000000000000000000815260040160405180910390fd5b6000848446604051602001610d449392919061398e565b6040516020818303038152906040528051906020012090506000610d678261203d565b90506000610db98286868080601f016020809104026020016040519081016040528093929190818152602001838380828437600081840152601f19601f82011690508083019250505050505050612073565b9050610de57f0ce23c3e399818cfee81a7ab0880f714e53d7672b08df0fa62f2843416e1ea0982610f41565b610e1b576040517f8baa579f00000000000000000000000000000000000000000000000000000000815260040160405180910390fd5b6001600a600088815260200190815260200160002060006101000a81548160ff0219169083151502179055506001600960008973ffffffffffffffffffffffffffffffffffffffff1673ffffffffffffffffffffffffffffffffffffffff16815260200190815260200160002060000160016101000a81548160ff02191690831515021790555042600960008973ffffffffffffffffffffffffffffffffffffffff1673ffffffffffffffffffffffffffffffffffffffff168152602001908152602001600020600301819055508673ffffffffffffffffffffffffffffffffffffffff167fd3ac88d7d7371ae60bfd5df4b594ee30e643822079fc7e3329ec4d090ff11e416001604051610f3091906130ed565b60405180910390a250505050505050565b60006006600084815260200190815260200160002060000160008373ffffffffffffffffffffffffffffffffffffffff1673ffffffffffffffffffffffffffffffffffffffff16815260200190815260200160002060009054906101000a900460ff16905092915050565b606060018054610fbb9061389c565b80601f0160208091040260200160405190810160405280929190818152602001828054610fe79061389c565b80156110345780601f1061100957610100808354040283529160200191611034565b820191906000526020600020905b81548152906001019060200180831161101757829003601f168201915b5050505050905090565b606481565b6000801b81565b6040517f8734687b00000000000000000000000000000000000000000000000000000000815260040160405180910390fd5b7fbb7482d026fc3277e93f1f33beacbaec5574bbbb0f00ce9dc9c2b96eb3385c1581565b7f0ce23c3e399818cfee81a7ab0880f714e53d7672b08df0fa62f2843416e1ea096110ca81611e44565b600960008373ffffffffffffffffffffffffffffffffffffffff1673ffffffffffffffffffffffffffffffffffffffff16815260200190815260200160002060000160009054906101000a900460ff16611150576040517f81896ea700000000000000000000000000000000000000000000000000000000815260040160405180910390fd5b6000600960008473ffffffffffffffffffffffffffffffffffffffff1673ffffffffffffffffffffffffffffffffffffffff16815260200190815260200160002060000160016101000a81548160ff02191690831515021790555042600960008473ffffffffffffffffffffffffffffffffffffffff1673ffffffffffffffffffffffffffffffffffffffff168152602001908152602001600020600301819055508173ffffffffffffffffffffffffffffffffffffffff167fd3ac88d7d7371ae60bfd5df4b594ee30e643822079fc7e3329ec4d090ff11e41600060405161123991906130ed565b60405180910390a25050565b7fbb7482d026fc3277e93f1f33beacbaec5574bbbb0f00ce9dc9c2b96eb3385c1561126f81611e44565b600960008573ffffffffffffffffffffffffffffffffffffffff1673ffffffffffffffffffffffffffffffffffffffff16815260200190815260200160002060000160009054906101000a900460ff166112f5576040517f81896ea700000000000000000000000000000000000000000000000000000000815260040160405180910390fd5b6064831115611330576040517faa0f7c2a00000000000000000000000000000000000000000000000000000000815260040160405180910390fd5b6000600960008673ffffffffffffffffffffffffffffffffffffffff1673ffffffffffffffffffffffffffffffffffffffff1681526020019081526020016000206001015490506000848261138591906139fa565b905080600960008873ffffffffffffffffffffffffffffffffffffffff1673ffffffffffffffffffffffffffffffffffffffff1681526020019081526020016000206001018190555042600960008873ffffffffffffffffffffffffffffffffffffffff1673ffffffffffffffffffffffffffffffffffffffff168152602001908152602001600020600301819055503373ffffffffffffffffffffffffffffffffffffffff168673ffffffffffffffffffffffffffffffffffffffff167f5a646c2c29abe4334526b60578209490db433f22fd390b6c39cbd87d1f4731b884848860405161147693929190613aa5565b60405180910390a3505050505050565b611491848484610887565b61149d8484848461209f565b50505050565b6000600960008373ffffffffffffffffffffffffffffffffffffffff1673ffffffffffffffffffffffffffffffffffffffff16815260200190815260200160002060000160009054906101000a900460ff169050919050565b606061150782611cb3565b506000611512612256565b90506000815111611532576040518060200160405280600081525061155d565b8061153c8461226d565b60405160200161154d929190613b18565b6040516020818303038152906040525b915050919050565b61156e82610989565b61157781611e44565b6115818383611f4a565b50505050565b600960003373ffffffffffffffffffffffffffffffffffffffff1673ffffffffffffffffffffffffffffffffffffffff16815260200190815260200160002060000160009054906101000a900460ff161561160e576040517f89b8660c00000000000000000000000000000000000000000000000000000000815260040160405180910390fd5b60006007600081548092919061162390613b3c565b919050559050611633338261233b565b80600860003373ffffffffffffffffffffffffffffffffffffffff1673ffffffffffffffffffffffffffffffffffffffff168152602001908152602001600020819055506040518060a001604052806001151581526020016000151581526020016000815260200142815260200142815250600960003373ffffffffffffffffffffffffffffffffffffffff1673ffffffffffffffffffffffffffffffffffffffff16815260200190815260200160002060008201518160000160006101000a81548160ff02191690831515021790555060208201518160000160016101000a81548160ff021916908315150217905550604082015181600101556060820151816002015560808201518160030155905050803373ffffffffffffffffffffffffffffffffffffffff167ff0b84989e9aa2920b1dbcfa04462cf55dc29545e8e65196f7e509652ea3244e860405160405180910390a350565b7f0ce23c3e399818cfee81a7ab0880f714e53d7672b08df0fa62f2843416e1ea0981565b600960003373ffffffffffffffffffffffffffffffffffffffff1673ffffffffffffffffffffffffffffffffffffffff16815260200190815260200160002060000160009054906101000a900460ff16611836576040517f81896ea700000000000000000000000000000000000000000000000000000000815260040160405180910390fd5b6000600860003373ffffffffffffffffffffffffffffffffffffffff1673ffffffffffffffffffffffffffffffffffffffff168152602001908152602001600020549050600860003373ffffffffffffffffffffffffffffffffffffffff1673ffffffffffffffffffffffffffffffffffffffff16815260200190815260200160002060009055600960003373ffffffffffffffffffffffffffffffffffffffff1673ffffffffffffffffffffffffffffffffffffffff168152602001908152602001600020600080820160006101000a81549060ff02191690556000820160016101000a81549060ff0219169055600182016000905560028201600090556003820160009055505061194881612359565b803373ffffffffffffffffffffffffffffffffffffffff167f702cc6282c3081f60509c15f2e35d65038669b6bcbe96df7fb5fbb3ceced7a0d60405160405180910390a350565b6000600560008473ffffffffffffffffffffffffffffffffffffffff1673ffffffffffffffffffffffffffffffffffffffff16815260200190815260200160002060008373ffffffffffffffffffffffffffffffffffffffff1673ffffffffffffffffffffffffffffffffffffffff16815260200190815260200160002060009054906101000a900460ff16905092915050565b7fbb7482d026fc3277e93f1f33beacbaec5574bbbb0f00ce9dc9c2b96eb3385c15611a4d81611e44565b600960008573ffffffffffffffffffffffffffffffffffffffff1673ffffffffffffffffffffffffffffffffffffffff16815260200190815260200160002060000160009054906101000a900460ff16611ad3576040517f81896ea700000000000000000000000000000000000000000000000000000000815260040160405180910390fd5b6000600960008673ffffffffffffffffffffffffffffffffffffffff1673ffffffffffffffffffffffffffffffffffffffff168152602001908152602001600020600101549050600081851015611b35578482611b309190613b84565b611b38565b60005b905080600960008873ffffffffffffffffffffffffffffffffffffffff1673ffffffffffffffffffffffffffffffffffffffff1681526020019081526020016000206001018190555042600960008873ffffffffffffffffffffffffffffffffffffffff1673ffffffffffffffffffffffffffffffffffffffff168152602001908152602001600020600301819055503373ffffffffffffffffffffffffffffffffffffffff168673ffffffffffffffffffffffffffffffffffffffff167f5a646c2c29abe4334526b60578209490db433f22fd390b6c39cbd87d1f4731b8848488604051611c2993929190613aa5565b60405180910390a3505050505050565b60007f7965db0b000000000000000000000000000000000000000000000000000000007bffffffffffffffffffffffffffffffffffffffffffffffffffffffff1916827bffffffffffffffffffffffffffffffffffffffffffffffffffffffff19161480611cac5750611cab826123df565b5b9050919050565b600080611cbf836124c1565b9050600073ffffffffffffffffffffffffffffffffffffffff168173ffffffffffffffffffffffffffffffffffffffff1603611d3257826040517f7e273289000000000000000000000000000000000000000000000000000000008152600401611d299190613462565b60405180910390fd5b80915050919050565b60006004600083815260200190815260200160002060009054906101000a900473ffffffffffffffffffffffffffffffffffffffff169050919050565b600033905090565b600080611d8c846124c1565b9050600073ffffffffffffffffffffffffffffffffffffffff168173ffffffffffffffffffffffffffffffffffffffff1614158015611df85750600073ffffffffffffffffffffffffffffffffffffffff168573ffffffffffffffffffffffffffffffffffffffff1614155b15611e2f576040517f9cbe235700000000000000000000000000000000000000000000000000000000815260040160405180910390fd5b611e3a8585856124fe565b9150509392505050565b611e5581611e50611d78565b612718565b50565b6000611e648383610f41565b611f3f5760016006600085815260200190815260200160002060000160008473ffffffffffffffffffffffffffffffffffffffff1673ffffffffffffffffffffffffffffffffffffffff16815260200190815260200160002060006101000a81548160ff021916908315150217905550611edc611d78565b73ffffffffffffffffffffffffffffffffffffffff168273ffffffffffffffffffffffffffffffffffffffff16847f2f8788117e7eff1d82e926ec794901d17c78024a50270940304540a733656f0d60405160405180910390a460019050611f44565b600090505b92915050565b6000611f568383610f41565b156120325760006006600085815260200190815260200160002060000160008473ffffffffffffffffffffffffffffffffffffffff1673ffffffffffffffffffffffffffffffffffffffff16815260200190815260200160002060006101000a81548160ff021916908315150217905550611fcf611d78565b73ffffffffffffffffffffffffffffffffffffffff168273ffffffffffffffffffffffffffffffffffffffff16847ff6391f5c32d9c69d2a47ea670b442974b53935d1edc7fd64eb21e047a839171b60405160405180910390a460019050612037565b600090505b92915050565b60007f19457468657265756d205369676e6564204d6573736167653a0a33320000000060005281601c52603c6000209050919050565b6000806000806120838686612769565b92509250925061209382826127c5565b82935050505092915050565b60008373ffffffffffffffffffffffffffffffffffffffff163b1115612250578273ffffffffffffffffffffffffffffffffffffffff1663150b7a026120e3611d78565b8685856040518563ffffffff1660e01b81526004016121059493929190613c0d565b6020604051808303816000875af192505050801561214157506040513d601f19601f8201168201806040525081019061213e9190613c6e565b60015b6121c5573d8060008114612171576040519150601f19603f3d011682016040523d82523d6000602084013e612176565b606091505b5060008151036121bd57836040517f64a0ae920000000000000000000000000000000000000000000000000000000081526004016121b4919061325e565b60405180910390fd5b805181602001fd5b63150b7a0260e01b7bffffffffffffffffffffffffffffffffffffffffffffffffffffffff1916817bffffffffffffffffffffffffffffffffffffffffffffffffffffffff19161461224e57836040517f64a0ae92000000000000000000000000000000000000000000000000000000008152600401612245919061325e565b60405180910390fd5b505b50505050565b606060405180602001604052806000815250905090565b60606000600161227c84612929565b01905060008167ffffffffffffffff81111561229b5761229a61367f565b5b6040519080825280601f01601f1916602001820160405280156122cd5781602001600182028036833780820191505090505b509050600082602001820190505b600115612330578080600190039150507f3031323334353637383961626364656600000000000000000000000000000000600a86061a8153600a858161232457612323613c9b565b5b049450600085036122db575b819350505050919050565b612355828260405180602001604052806000815250612a7c565b5050565b60006123686000836000611d80565b9050600073ffffffffffffffffffffffffffffffffffffffff168173ffffffffffffffffffffffffffffffffffffffff16036123db57816040517f7e2732890000000000000000000000000000000000000000000000000000000081526004016123d29190613462565b60405180910390fd5b5050565b60007f80ac58cd000000000000000000000000000000000000000000000000000000007bffffffffffffffffffffffffffffffffffffffffffffffffffffffff1916827bffffffffffffffffffffffffffffffffffffffffffffffffffffffff191614806124aa57507f5b5e139f000000000000000000000000000000000000000000000000000000007bffffffffffffffffffffffffffffffffffffffffffffffffffffffff1916827bffffffffffffffffffffffffffffffffffffffffffffffffffffffff1916145b806124ba57506124b982612a98565b5b9050919050565b60006002600083815260200190815260200160002060009054906101000a900473ffffffffffffffffffffffffffffffffffffffff169050919050565b60008061250a846124c1565b9050600073ffffffffffffffffffffffffffffffffffffffff168373ffffffffffffffffffffffffffffffffffffffff161461254c5761254b818486612b02565b5b600073ffffffffffffffffffffffffffffffffffffffff168173ffffffffffffffffffffffffffffffffffffffff16146125dd5761258e600085600080612bc6565b6001600360008373ffffffffffffffffffffffffffffffffffffffff1673ffffffffffffffffffffffffffffffffffffffff168152602001908152602001600020600082825403925050819055505b600073ffffffffffffffffffffffffffffffffffffffff168573ffffffffffffffffffffffffffffffffffffffff1614612660576001600360008773ffffffffffffffffffffffffffffffffffffffff1673ffffffffffffffffffffffffffffffffffffffff168152602001908152602001600020600082825401925050819055505b846002600086815260200190815260200160002060006101000a81548173ffffffffffffffffffffffffffffffffffffffff021916908373ffffffffffffffffffffffffffffffffffffffff160217905550838573ffffffffffffffffffffffffffffffffffffffff168273ffffffffffffffffffffffffffffffffffffffff167fddf252ad1be2c89b69c2b068fc378daa952ba7f163c4a11628f55a4df523b3ef60405160405180910390a4809150509392505050565b6127228282610f41565b6127655780826040517fe2517d3f00000000000000000000000000000000000000000000000000000000815260040161275c929190613cca565b60405180910390fd5b5050565b600080600060418451036127ae5760008060006020870151925060408701519150606087015160001a90506127a088828585612d8b565b9550955095505050506127be565b60006002855160001b9250925092505b9250925092565b600060038111156127d9576127d8613a2e565b5b8260038111156127ec576127eb613a2e565b5b0315612925576001600381111561280657612805613a2e565b5b82600381111561281957612818613a2e565b5b03612850576040517ff645eedf00000000000000000000000000000000000000000000000000000000815260040160405180910390fd5b6002600381111561286457612863613a2e565b5b82600381111561287757612876613a2e565b5b036128bc578060001c6040517ffce698f70000000000000000000000000000000000000000000000000000000081526004016128b39190613462565b60405180910390fd5b6003808111156128cf576128ce613a2e565b5b8260038111156128e2576128e1613a2e565b5b0361292457806040517fd78bce0c00000000000000000000000000000000000000000000000000000000815260040161291b9190613447565b60405180910390fd5b5b5050565b600080600090507a184f03e93ff9f4daa797ed6e38ed64bf6a1f0100000000000000008310612987577a184f03e93ff9f4daa797ed6e38ed64bf6a1f010000000000000000838161297d5761297c613c9b565b5b0492506040810190505b6d04ee2d6d415b85acef810000000083106129c4576d04ee2d6d415b85acef810000000083816129ba576129b9613c9b565b5b0492506020810190505b662386f26fc1000083106129f357662386f26fc1000083816129e9576129e8613c9b565b5b0492506010810190505b6305f5e1008310612a1c576305f5e1008381612a1257612a11613c9b565b5b0492506008810190505b6127108310612a41576127108381612a3757612a36613c9b565b5b0492506004810190505b60648310612a645760648381612a5a57612a59613c9b565b5b0492506002810190505b600a8310612a73576001810190505b80915050919050565b612a868383612e7f565b612a93600084848461209f565b505050565b60007f01ffc9a7000000000000000000000000000000000000000000000000000000007bffffffffffffffffffffffffffffffffffffffffffffffffffffffff1916827bffffffffffffffffffffffffffffffffffffffffffffffffffffffff1916149050919050565b612b0d838383612f78565b612bc157600073ffffffffffffffffffffffffffffffffffffffff168373ffffffffffffffffffffffffffffffffffffffff1603612b8257806040517f7e273289000000000000000000000000000000000000000000000000000000008152600401612b799190613462565b60405180910390fd5b81816040517f177e802f000000000000000000000000000000000000000000000000000000008152600401612bb8929190613cf3565b60405180910390fd5b505050565b8080612bff5750600073ffffffffffffffffffffffffffffffffffffffff168273ffffffffffffffffffffffffffffffffffffffff1614155b15612d33576000612c0f84611cb3565b9050600073ffffffffffffffffffffffffffffffffffffffff168373ffffffffffffffffffffffffffffffffffffffff1614158015612c7a57508273ffffffffffffffffffffffffffffffffffffffff168173ffffffffffffffffffffffffffffffffffffffff1614155b8015612c8d5750612c8b818461198f565b155b15612ccf57826040517fa9fbf51f000000000000000000000000000000000000000000000000000000008152600401612cc6919061325e565b60405180910390fd5b8115612d3157838573ffffffffffffffffffffffffffffffffffffffff168273ffffffffffffffffffffffffffffffffffffffff167f8c5be1e5ebec7d5bd14f71427d1e84f3dd0314c0f7b2291e5b200ac8c7c3b92560405160405180910390a45b505b836004600085815260200190815260200160002060006101000a81548173ffffffffffffffffffffffffffffffffffffffff021916908373ffffffffffffffffffffffffffffffffffffffff16021790555050505050565b60008060007f7fffffffffffffffffffffffffffffff5d576e7357a4501ddfe92f46681b20a08460001c1115612dcb576000600385925092509250612e75565b600060018888888860405160008152602001604052604051612df09493929190613d38565b6020604051602081039080840390855afa158015612e12573d6000803e3d6000fd5b505050602060405103519050600073ffffffffffffffffffffffffffffffffffffffff168173ffffffffffffffffffffffffffffffffffffffff1603612e6657600060016000801b93509350935050612e75565b8060008060001b935093509350505b9450945094915050565b600073ffffffffffffffffffffffffffffffffffffffff168273ffffffffffffffffffffffffffffffffffffffff1603612ef15760006040517f64a0ae92000000000000000000000000000000000000000000000000000000008152600401612ee8919061325e565b60405180910390fd5b6000612eff83836000611d80565b9050600073ffffffffffffffffffffffffffffffffffffffff168173ffffffffffffffffffffffffffffffffffffffff1614612f735760006040517f73c6ac6e000000000000000000000000000000000000000000000000000000008152600401612f6a919061325e565b60405180910390fd5b505050565b60008073ffffffffffffffffffffffffffffffffffffffff168373ffffffffffffffffffffffffffffffffffffffff161415801561303057508273ffffffffffffffffffffffffffffffffffffffff168473ffffffffffffffffffffffffffffffffffffffff161480612ff15750612ff0848461198f565b5b8061302f57508273ffffffffffffffffffffffffffffffffffffffff1661301783611d3b565b73ffffffffffffffffffffffffffffffffffffffff16145b5b90509392505050565b6000604051905090565b600080fd5b600080fd5b60007fffffffff0000000000000000000000000000000000000000000000000000000082169050919050565b6130828161304d565b811461308d57600080fd5b50565b60008135905061309f81613079565b92915050565b6000602082840312156130bb576130ba613043565b5b60006130c984828501613090565b91505092915050565b60008115159050919050565b6130e7816130d2565b82525050565b600060208201905061310260008301846130de565b92915050565b600081519050919050565b600082825260208201905092915050565b60005b83811015613142578082015181840152602081019050613127565b60008484015250505050565b6000601f19601f8301169050919050565b600061316a82613108565b6131748185613113565b9350613184818560208601613124565b61318d8161314e565b840191505092915050565b600060208201905081810360008301526131b2818461315f565b905092915050565b6000819050919050565b6131cd816131ba565b81146131d857600080fd5b50565b6000813590506131ea816131c4565b92915050565b60006020828403121561320657613205613043565b5b6000613214848285016131db565b91505092915050565b600073ffffffffffffffffffffffffffffffffffffffff82169050919050565b60006132488261321d565b9050919050565b6132588161323d565b82525050565b6000602082019050613273600083018461324f565b92915050565b6132828161323d565b811461328d57600080fd5b50565b60008135905061329f81613279565b92915050565b600080604083850312156132bc576132bb613043565b5b60006132ca85828601613290565b92505060206132db858286016131db565b9150509250929050565b6000602082840312156132fb576132fa613043565b5b600061330984828501613290565b91505092915050565b61331b816131ba565b82525050565b600060c08201905061333660008301896130de565b61334360208301886130de565b6133506040830187613312565b61335d6060830186613312565b61336a6080830185613312565b61337760a0830184613312565b979650505050505050565b60008060006060848603121561339b5761339a613043565b5b60006133a986828701613290565b93505060206133ba86828701613290565b92505060406133cb868287016131db565b9150509250925092565b6000819050919050565b6133e8816133d5565b81146133f357600080fd5b50565b600081359050613405816133df565b92915050565b60006020828403121561342157613420613043565b5b600061342f848285016133f6565b91505092915050565b613441816133d5565b82525050565b600060208201905061345c6000830184613438565b92915050565b60006020820190506134776000830184613312565b92915050565b6000806040838503121561349457613493613043565b5b60006134a2858286016133f6565b92505060206134b385828601613290565b9150509250929050565b600080fd5b600080fd5b600080fd5b60008083601f8401126134e2576134e16134bd565b5b8235905067ffffffffffffffff8111156134ff576134fe6134c2565b5b60208301915083600182028301111561351b5761351a6134c7565b5b9250929050565b6000806000806060858703121561353c5761353b613043565b5b600061354a87828801613290565b945050602061355b878288016133f6565b935050604085013567ffffffffffffffff81111561357c5761357b613048565b5b613588878288016134cc565b925092505092959194509250565b61359f816130d2565b81146135aa57600080fd5b50565b6000813590506135bc81613596565b92915050565b600080604083850312156135d9576135d8613043565b5b60006135e785828601613290565b92505060206135f8858286016135ad565b9150509250929050565b6005811061360f57600080fd5b50565b60008135905061362181613602565b92915050565b6000806000606084860312156136405761363f613043565b5b600061364e86828701613290565b935050602061365f868287016131db565b925050604061367086828701613612565b9150509250925092565b600080fd5b7f4e487b7100000000000000000000000000000000000000000000000000000000600052604160045260246000fd5b6136b78261314e565b810181811067ffffffffffffffff821117156136d6576136d561367f565b5b80604052505050565b60006136e9613039565b90506136f582826136ae565b919050565b600067ffffffffffffffff8211156137155761371461367f565b5b61371e8261314e565b9050602081019050919050565b82818337600083830152505050565b600061374d613748846136fa565b6136df565b9050828152602081018484840111156137695761376861367a565b5b61377484828561372b565b509392505050565b600082601f830112613791576137906134bd565b5b81356137a184826020860161373a565b91505092915050565b600080600080608085870312156137c4576137c3613043565b5b60006137d287828801613290565b94505060206137e387828801613290565b93505060406137f4878288016131db565b925050606085013567ffffffffffffffff81111561381557613814613048565b5b6138218782880161377c565b91505092959194509250565b6000806040838503121561384457613843613043565b5b600061385285828601613290565b925050602061386385828601613290565b9150509250929050565b7f4e487b7100000000000000000000000000000000000000000000000000000000600052602260045260246000fd5b600060028204905060018216806138b457607f821691505b6020821081036138c7576138c661386d565b5b50919050565b60006060820190506138e2600083018661324f565b6138ef6020830185613312565b6138fc604083018461324f565b949350505050565b60008160601b9050919050565b600061391c82613904565b9050919050565b600061392e82613911565b9050919050565b6139466139418261323d565b613923565b82525050565b6000819050919050565b613967613962826133d5565b61394c565b82525050565b6000819050919050565b613988613983826131ba565b61396d565b82525050565b600061399a8286613935565b6014820191506139aa8285613956565b6020820191506139ba8284613977565b602082019150819050949350505050565b7f4e487b7100000000000000000000000000000000000000000000000000000000600052601160045260246000fd5b6000613a05826131ba565b9150613a10836131ba565b9250828201905080821115613a2857613a276139cb565b5b92915050565b7f4e487b7100000000000000000000000000000000000000000000000000000000600052602160045260246000fd5b60058110613a6e57613a6d613a2e565b5b50565b6000819050613a7f82613a5d565b919050565b6000613a8f82613a71565b9050919050565b613a9f81613a84565b82525050565b6000606082019050613aba6000830186613312565b613ac76020830185613312565b613ad46040830184613a96565b949350505050565b600081905092915050565b6000613af282613108565b613afc8185613adc565b9350613b0c818560208601613124565b80840191505092915050565b6000613b248285613ae7565b9150613b308284613ae7565b91508190509392505050565b6000613b47826131ba565b91507fffffffffffffffffffffffffffffffffffffffffffffffffffffffffffffffff8203613b7957613b786139cb565b5b600182019050919050565b6000613b8f826131ba565b9150613b9a836131ba565b9250828203905081811115613bb257613bb16139cb565b5b92915050565b600081519050919050565b600082825260208201905092915050565b6000613bdf82613bb8565b613be98185613bc3565b9350613bf9818560208601613124565b613c028161314e565b840191505092915050565b6000608082019050613c22600083018761324f565b613c2f602083018661324f565b613c3c6040830185613312565b8181036060830152613c4e8184613bd4565b905095945050505050565b600081519050613c6881613079565b92915050565b600060208284031215613c8457613c83613043565b5b6000613c9284828501613c59565b91505092915050565b7f4e487b7100000000000000000000000000000000000000000000000000000000600052601260045260246000fd5b6000604082019050613cdf600083018561324f565b613cec6020830184613438565b9392505050565b6000604082019050613d08600083018561324f565b613d156020830184613312565b9392505050565b600060ff82169050919050565b613d3281613d1c565b82525050565b6000608082019050613d4d6000830187613438565b613d5a6020830186613d29565b613d676040830185613438565b613d746060830184613438565b9594505050505056fea26469706673582212205c29e8e959d70e9e10bc3c3dcd62d2d9f36f328b8040f72e25036c83a72ce51164736f6c63430008180033",
  "linkReferences": {},
  "deployedLinkReferences": {}
}